:100000000C94A2000C94CA000C94CA000C94CA0070
:100010000C94CA000C94CA000C94CA000C94CA0038
:100020000C94CA000C94CA000C94CA000C94CA0028
:100030000C94CA000C94CA000C94CA000C94CA0018
:100040000C9412040C94CA000C94E0030C94BA03B0
:100050000C94CA000C94CA000C94CA000C94CA00F8
:100060000C94CA000C94CA00000000002400270071
:100070002A0000000000250028002B0000000000DE
:1000800023002600290004040404040404040202DA
:100090000202020203030303030301020408102007
:1000A0004080010204081020010204081020000012
:1000B0000008000201000003040700000000000027
:1000C00000007E306D79335B5F707F7B771F0D3D65
:1000D0004F4700000000000000000000000000008A
:1000E000000000000000000000000000000080018F
:1000F00080007E306D79335B5F707F7B0000000095
:10010000000000771F0D3D4F4700370000000E0034
:100110000000670000000000000000000000000078
:10012000000800771F0D3D4F4700370000000E000C
:10013000151D670000000000000000000000000026
:1001400000005C0411241FBECFEFD8E0DEBFCDBF9E
:1001500011E0A0E0B1E0EAEFFEE002C005900D92F0
:10016000A033B107D9F722E0A0E3B1E001C01D92AE
:10017000AF39B207E1F710E0C2EAD0E004C021973E
:10018000FE010E947507C13AD107C9F70E945D05BB
:100190000C947B070C94000096E0899FD0011124F9
:1001A000A05DBD4F90967C936E935F9791E0919682
:1001B0009C939197E0919D02F0919E0290919C02F8
:1001C000992339F0309751F0811108C080914C0289
:1001D0000994309719F05C968C91FACF0895CF92DC
:1001E000DF92EF92FF920F931F9396E0899FF001A9
:1001F0001124E05DFD4F11A2278D30A12130310582
:1002000051F178F02230310509F451C02330310525
:1002100009F452C01F910F91FF90EF90DF90CF90A3
:1002200008956623B9F361E070E00E94CC002FB717
:10023000F8948091370190913801A0913901B091E3
:100240003A012FBF8093880290938902A0938A027B
:10025000B0938B02DFCF9FB7F894C0903701D09056
:100260003801E0903901F0903A019FBF0091880277
:100270001091890220918A0230918B02C01AD10A12
:10028000E20AF30A00919A0210919B0230E020E00A
:100290000C151D052E053F0550F462E070E01F911E
:1002A0000F91FF90EF90DF90CF900C94CC006111F4
:1002B000B1CF63E070E0F3CF70E060E0F0CFAF92D9
:1002C000BF92CF92DF92EF92FF920F931F93CF9343
:1002D000DF936C017B018B01040F151FEB015E01A5
:1002E000AE18BF08C017D10759F06991D601ED913A
:1002F000FC910190F081E02DC6010995892B79F7D9
:10030000C501DF91CF911F910F91FF90EF90DF908A
:10031000CF90BF90AF900895FC01538D448D252F51
:1003200030E0842F90E0821B930B541710F0CF968F
:10033000089501970895FC01918D828D981761F0C1
:10034000A28DAE0FBF2FB11D5D968C91928D9F5FD8
:100350009F73928F90E008958FEF9FEF0895FC01B7
:10036000918D828D981731F0828DE80FF11D858D6A
:1003700090E008958FEF9FEF0895FC01918D228DFD
:10038000892F90E0805C9F4F821B91098F73992782
:1003900008958BE391E00E94BD0121E0892B09F4CF
:1003A00020E0822F089580E090E0892B29F00E94C0
:1003B000C90181110C9400000895FC01A48DA80FBF
:1003C000B92FB11DA35ABF4F2C91848D90E0019697
:1003D0008F739927848FA689B7892C93A089B189B7
:1003E0008C91837080648C93938D848D981306C058
:1003F0000288F389E02D80818F7D80830895EF92BC
:10040000FF920F931F93CF93DF93EC0181E0888FCE
:100410009B8D8C8D98131AC0E889F989808185FF9E
:1004200015C09FB7F894EE89FF896083E889F98940
:1004300080818370806480839FBF81E090E0DF9142
:10044000CF911F910F91FF90EF900895F62E0B8D95
:1004500010E00F5F1F4F0F731127E02E8C8D8E1150
:100460000CC00FB607FCFACFE889F989808185FFB7
:10047000F5CFCE010E94DD01F1CFEB8DEC0FFD2F0A
:10048000F11DE35AFF4FF0829FB7F8940B8FEA8972
:10049000FB8980818062CFCFCF93DF93EC01888D81
:1004A0008823B9F0AA89BB89E889F9898C9185FDEF
:1004B00003C0808186FD0DC00FB607FCF7CF8C917D
:1004C00085FFF2CF808185FFEDCFCE010E94DD0157
:1004D000E9CFDF91CF910895833081F028F4813006
:1004E00099F08230A9F008958730A9F08830C9F0DA
:1004F0008430B1F4809180008F7D03C080918000B2
:100500008F7780938000089584B58F7784BD089598
:1005100084B58F7DFBCF8091B0008F778093B00042
:1005200008958091B0008F7DF9CFCF93DF93282F6E
:1005300030E0F901E255FF4F8491F901E656FF4F93
:10054000D491F901EA57FF4FC491CC23A1F0811156
:100550000E946C02EC2FF0E0EE0FFF1FE458FF4FFB
:10056000A591B491EC91ED2381E090E009F480E055
:10057000DF91CF91089580E090E0FACF862F0C9420
:1005800095021F93CF93DF93282F30E0F901E255B6
:10059000FF4F8491F901E656FF4FD491F901EA57D4
:1005A000FF4FC491CC23A9F0162F81110E946C0239
:1005B000EC2FF0E0EE0FFF1FEE58FF4FA591B49126
:1005C0008FB7F894EC91111108C0D095DE23DC931D
:1005D0008FBFDF91CF911F910895DE2BF8CF862F2B
:1005E000642F0C94C102CF93DF9390E0FC01E65698
:1005F000FF4F24918A579F4FFC0184918823C9F0B3
:1006000090E0880F991FFC01E859FF4FA591B49124
:10061000FC01EE58FF4FC591D49161110DC09FB7F9
:10062000F8948C91209582238C93888128232883A9
:100630009FBFDF91CF910895623051F49FB7F89436
:100640003C91822F809583238C93E8812E2BEFCFD2
:100650008FB7F894EC912E2B2C938FBFEACF862F77
:10066000642F0C94F302AF92BF92CF92DF92EF927D
:10067000FF920F931F93CF93DF9300D0CDB7DEB7D8
:1006800069834A83880F991F00912E0210912F02CF
:10069000000F111FE8EDF1E09F01285D31402017A8
:1006A000310714F41192F8CF2981FC01E852FE4F72
:1006B00021838A81808360E080912C020E94C102A4
:1006C0001016110634F501501109F801E852FE4FD9
:1006D000C080B0902A02A090280287E0E82EF12C7A
:1006E000D12CB6010E2C02C0759567950A94E2F7DD
:1006F00061708A2D0E94C10261E08B2D0E94C102AF
:1007000060E08B2D0E94C10281E0E81AF10848F7F1
:10071000D7CF61E080912C020F900F90DF91CF91A5
:100720001F910F91FF90EF90DF90CF90BF90AF900F
:100730000C94C102EF92FF920F931F93CF937C0111
:100740008C0183E0000F111F8A95E1F708511E4FBD
:10075000C1E0F80111928F0140E06C2FC7010E94A7
:100760003303CF5FC930A9F7CF911F910F91FF904D
:10077000EF9008951F920F920FB60F9211242F93AE
:100780003F934F935F936F937F938F939F93AF9319
:10079000BF93EF93FF938BE391E00E94DD01FF9104
:1007A000EF91BF91AF919F918F917F916F915F91E9
:1007B0004F913F912F910F900FBE0F901F90189562
:1007C0001F920F920FB60F9211242F938F939F9326
:1007D000EF93FF93E0914B01F0914C018081E09108
:1007E0005101F091520182FD1BC090818091540112
:1007F0008F5F8F7320915501821741F0E091540172
:10080000F0E0E55CFE4F958F80935401FF91EF91EE
:100810009F918F912F910F900FBE0F901F90189561
:100820008081F4CF1F920F920FB60F9211242F9355
:100830003F938F939F93AF93BF9380913701909194
:100840003801A0913901B0913A013091340123E08F
:10085000230F2D3758F50196A11DB11D20933401AA
:100860008093370190933801A0933901B0933A01F6
:100870008091300190913101A0913201B09133010A
:100880000196A11DB11D8093300190933101A09379
:100890003201B0933301BF91AF919F918F913F91FE
:1008A0002F910F900FBE0F901F90189526E8230FE1
:1008B0000296A11DB11DD2CFCF93DF9310923E01BE
:1008C00010923D0188EE93E0A0E0B0E080933F01FC
:1008D00090934001A0934101B093420187E191E0E0
:1008E00090933C0180933B0185EC90E0909348010C
:1008F0008093470184EC90E090934A0180934901F2
:1009000080EC90E090934C0180934B0181EC90E05F
:1009100090934E0180934D0182EC90E090935001B2
:1009200080934F0186EC90E09093520180935101A7
:1009300010925401109255011092560110925701D5
:100940001092320210923602109235021092370243
:1009500089E291E09093310280933002ECE4F2E07E
:1009600088E892E0108214821382158236968E17E0
:100970009F07C1F783E091E09093930280939202E6
:1009800080E091E0909395028093940284E08093BC
:10099000960283E08093970287E091E09093910222
:1009A000809390028AE090E090939902809398025D
:1009B00084EF91E090939B0280939A0210929E02A2
:1009C00010929D0210928C0210928D0210928E0253
:1009D00010928F0210929C02C2E0D0E0D0932902C4
:1009E000C093280284E090E090932B0280932A0227
:1009F00083E090E090932D0280932C0281E090E0C0
:100A000090932F0280932E0261E082E00E94F30215
:100A100061E080912A020E94F30261E080912C0241
:100A20000E94F30261E080912C020E94C102D093E7
:100A30002902C0932802E8EEF1E088E292E01192E8
:100A40008E179F07E1F7D0E0C0E080912E029091D1
:100A50002F02C817D90774F540E06FE0CE010E945D
:100A6000330380912E0290912F02C817D9072CF4DE
:100A700047E06BE0CE010E94330340E069E0CE0125
:100A80000E94330380912E0290912F02C817D9073C
:100A90001CF4CE010E949A0380912E0290912F02A5
:100AA000C817D9072CF440E06CE0CE010E94330354
:100AB0002196CBCFDF91CF910895789484B5826051
:100AC00084BD84B5816084BD85B5826085BD85B5F2
:100AD000816085BD80916E00816080936E00109270
:100AE00081008091810082608093810080918100EB
:100AF000816080938100809180008160809380007C
:100B00008091B10084608093B1008091B0008160D9
:100B10008093B00080917A00846080937A00809105
:100B20007A00826080937A0080917A00816080935D
:100B30007A0080917A00806880937A001092C100D8
:100B4000E0914B01F0914C0182E08083E0914701FC
:100B5000F09148011082E0914901F0914A018FEC37
:100B6000808310925301E0914F01F091500186E093
:100B70008083E0914D01F0914E01808180618083FE
:100B8000E0914D01F0914E01808188608083E09179
:100B90004D01F0914E01808180688083E0914D018C
:100BA000F0914E0180818F7D808380912E02909103
:100BB0002F021816190634F441E06CE090E080E052
:100BC0000E94330380912E0290912F02181619066D
:100BD00034F448E06AE090E080E00E943303412C66
:100BE000512C3201439488248A94982C50E0C52ECD
:100BF00050E0D52E51E050939C028FB7F89440916D
:100C00003701509138016091390170913A018FBFDD
:100C100080918C0290918D02A0918E02B0918F02F2
:100C2000481B590B6A0B7B0B80919802909199029B
:100C3000B0E0A0E084179507A607B70708F015C134
:100C4000C0E080919602C81760F4E0919202F091A2
:100C50009302EC0FF11D62E080810E94F302CF5FEE
:100C6000F0CF312C80919702381608F05FC0032D29
:100C700010E0E0919402F0919502E00FF11F61E025
:100C800080810E94F302E0919402F0919502E00FBE
:100C9000F11F60E080810E94C102D301C201032CD8
:100CA00004C0880F991FAA1FBB1F0A94D2F75C01CA
:100CB0007C01E094F094212C809196022816F8F49F
:100CC000C22DD0E0E0919202F0919302EC0FFD1F53
:100CD00080810E9495022496CC0FDD1FC05DDD4F00
:100CE000892B41F4888199818A299B29998388835A
:100CF0002394E2CF888199818E219F21F7CFE091C3
:100D00009402F0919502E00FF11F61E080810E9452
:100D1000C1028091940290919502080F191F60E022
:100D2000F80180810E94F30233949CCFC0E3D2E0AB
:100D3000FE01878D90A1892B21F4148E968E858ECD
:100D400011A2369652E0EC36F50799F7F12C809116
:100D50009602F81608F051C0E12C0F2D10E0000F9C
:100D6000111F085C1D4F20919702E21608F043C046
:100D7000F801608171810E2C02C0769567950A9406
:100D8000E2F7F29E900111242E0D311DE0E3F2E016
:100D900080E0458D568D2417350709F4A4C08F5F78
:100DA00036968A30B1F760FF24C0E0E3F2E090E0CD
:100DB00080E0448D411118C0E0919002F0919102C1
:100DC000E20FF31F408156E0589FF001599FF00D4C
:100DD0001124E05DFD4F448F368F258F10A2178EB2
:100DE00061E00E94EF0005C0019636968A309105B9
:100DF00001F7E394B8CFF394AACF80E099A19111C1
:100E0000892F269692E0CC36D907C1F79FB7F89480
:100E100040913701509138016091390170913A0148
:100E20009FBF40938C0250938D0260938E0270930B
:100E30008F028823D1F0809151028823B1F08091F4
:100E40004F0290915002019781F410914C021111C0
:100E50000FC0C114D10409F4CDCE0E94C90188236A
:100E600009F4C8CE0E940000C5CE10929C02F1CFBA
:100E7000612F8BE391E00E94FF0180912E029091FF
:100E80002F02133219F1C0913501D0913601181695
:100E90001906B4F4C830D10598F4E12F110FFF0BF7
:100EA000F097E03168F4EE53FF4F4491FE01E852B1
:100EB000FE4F408B6C2F6F5F90E080E00E94330309
:100EC0002196D0933601C0933501C3CF10923601DD
:100ED00010923501181619060CF0BBCF90E080E097
:100EE0000E949A03B6CF61707CCFEE0FFF1F059072
:0A0EF000F491E02D0994F894FFCF6F
:100EFA00090A0B08070605313233343536373839D3
:100F0A002A302300000000FF015F018C014C02BD62
:100F1A00019B01AF01000000002F03EF02BE020097
:00000001FF
